:100000000C94CB000C94F3000C94F3000C94F300CC
:100010000C94F3000C94F3000C94F3000C94F30094
:100020000C9461050C94F3000C94F3000C94F30011
:100030000C94F3000C94F3000C94F3000C94F30074
:100040000C94BF040C94F3000C942F050C94090538
:100050000C94F3000C94F3000C94F3000C94F30054
:100060000C94F3000C94F30000000000240027001F
:100070002A0018002860095802B004580258025893
:1000800002102D00000006002628236810F4012C21
:1000900006F4012602806E001C04050026E0207094
:1000A000100E022A060E020E02004100000014008B
:1000B00026801180113002900630023002006E005E
:1000C00000001E002638081C040E022A060E020E2E
:1000D0000200320000001D0026220B220BEE0266F9
:1000E00008EE02EE02806E0000001A0026F603BC45
:1000F000050802BC050802D401004B0000001C00EA
:10010000261F015D033E023E021F015D03A06E003B
:10011000000004002604010C0304011C0704010C68
:1001200003006E0000000C0025800DC006B0011019
:1001300005B001B001008200000008002600238005
:10014000113002900630023002006E001C040000E4
:100150000000250028002B0000000008000201001C
:100160000003040700000000000000000404040471
:100170000404040402020202020203030303030351
:10018000010204081020408001020408102001022E
:1001900004081020510611241FBECFEFD8E0DEBFA7
:1001A000CDBF23E0ACE1B2E001C01D92AD3DB2078E
:1001B000E1F712E0A0E0B1E0E8EAF0E202C0059069
:1001C0000D92AC31B107D9F710E0CBECD0E004C010
:1001D0002197FE010E944C10CA3CD107C9F70E942A
:1001E0008C060C9452100C9400002091CE03309198
:1001F000CF032817390728F48091CC0381608093BE
:10020000CC03089590E0FC01E85AFE4F2491FC01D4
:10021000E058FE4F3491FC01E459FE4FE491EE2387
:10022000C9F0222339F0233001F1A8F4213019F16B
:10023000223029F1F0E0EE0FFF1FE25BFE4FA591A7
:10024000B4918FB7F894EC91611126C030953E239C
:100250003C938FBF08952730A9F02830C9F024308F
:1002600049F7809180008F7D03C0809180008F7757
:1002700080938000DFCF84B58F7784BDDBCF84B5DA
:100280008F7DFBCF8091B0008F778093B000D2CF6D
:100290008091B0008F7DF9CF3E2BDACF3FB7F89435
:1002A0008091210290912202A0912302B091240218
:1002B00026B5A89B05C02F3F19F00196A11DB11DC1
:1002C0003FBFBA2FA92F982F8827BC01CD01620FFD
:1002D000711D811D911D42E0660F771F881F991FB8
:1002E0004A95D1F70895AF92BF92CF92DF92EF92E5
:1002F000FF920F931F93CF93DF936C017B018B01D0
:10030000040F151FEB015E01AE18BF08C017D1071F
:1003100059F06991D601ED91FC910190F081E02DA9
:10032000C6010995892B79F7C501DF91CF911F91FE
:100330000F91FF90EF90DF90CF90BF90AF90089516
:10034000FC01538D448D252F30E0842F90E0821BDB
:10035000930B541710F0CF96089501970895FC0160
:10036000918D828D981761F0A28DAE0FBF2FB11DB8
:100370005D968C91928D9F5F9F73928F90E0089510
:100380008FEF9FEF0895FC01918D828D981731F0CA
:10039000828DE80FF11D858D90E008958FEF9FEF1E
:1003A0000895FC01918D228D892F90E0805C9F4FF4
:1003B000821B91098F73992708958BE292E00E9426
:1003C000D10121E0892B09F420E0822F089580E0FB
:1003D00090E0892B29F00E94DD0181110C9400002E
:1003E0000895FC01A48DA80FB92FB11DA35ABF4FCA
:1003F0002C91848D90E001968F739927848FA68924
:10040000B7892C93A089B1898C91837080648C9377
:10041000938D848D981306C00288F389E02D808126
:100420008F7D80830895EF92FF920F931F93CF9358
:10043000DF93EC0181E0888F9B8D8C8D98131AC01F
:10044000E889F989808185FF15C09FB7F894EE8906
:10045000FF896083E889F989808183708064808363
:100460009FBF81E090E0DF91CF911F910F91FF90AE
:10047000EF900895F62E0B8D10E00F5F1F4F0F7356
:100480001127E02E8C8D8E110CC00FB607FCFACF11
:10049000E889F989808185FFF5CFCE010E94F101BD
:1004A000F1CFEB8DEC0FFD2FF11DE35AFF4FF082E2
:1004B0009FB7F8940B8FEA89FB8980818062CFCF48
:1004C000CF93DF93EC01888D8823B9F0AA89BB898B
:1004D000E889F9898C9185FD03C0808186FD0DC076
:1004E0000FB607FCF7CF8C9185FFF2CF808185FF97
:1004F000EDCFCE010E94F101E9CFDF91CF910895B8
:1005000022E3FC012E9FC0012F9F900D1124480F64
:10051000591F7695679576956795CB01880F991F3A
:10052000860F971F8417950750F485E0869F9001EA
:10053000879F300D112481E02417350708F480E0EF
:1005400008954CEE5FEF0C9480024F925F926F9291
:100550007F929F92AF92BF92CF92DF92EF92FF92E3
:100560000F931F93CF93DF93182F5A01922EC62F0C
:10057000D0E0C652DD4F412C512C32014394C12CA6
:10058000D12C7601112301F19920B1F08881B501B8
:1005900090E00E94A102002379F1CC0CDD1CEE1C3E
:1005A000FF1C882311F06894C0F8440C551C661C8D
:1005B000771C11502296E6CF898144E150E0B501C5
:1005C00090E00E948002E7CFC092AA03D092AB03D2
:1005D000E092AC03F092AD03DF91CF911F910F91A8
:1005E000FF90EF90DF90CF90BF90AF909F907F9063
:1005F0006F905F904F9008958823B9F2C428D52852
:10060000E628F728D2CFCF93DF93EC01FC01339695
:10061000659174918091DB0290E00E94A102882391
:1006200069F0FE013596659174918091DC0244E198
:1006300050E090E0DF91CF910C94800280E0DF9158
:10064000CF91089522E3289FA001299F500D1124E6
:1006500076956795769567959B01220F331F260F38
:10066000371F4217530750F085E0869F9001879F00
:10067000300D112481E02417350708F480E0089537
:10068000BF92CF92DF92EF92FF920F931F93CF937F
:10069000DF9310912A028091CD03B12C1817A0F599
:1006A000812F8170B82E0091290201111EC0E12F07
:1006B000F0E0E353FD4FE584F12CCCEEDFEF88232F
:1006C00011F0C4E1D0E0C0902702D0902802CC0DF8
:1006D000DD1DBE01C7010E942203882301F181E0D4
:1006E00090E090932602809325020F5F00932902E9
:1006F00080912502909126020817190628F0109281
:1007000029021F5F10932A028B2DDF91CF911F9139
:100710000F91FF90EF90DF90CF90BF900895CC0D98
:10072000DD1DBE01C7010E942203882319F082E06B
:1007300090E0D7CFB6016C0F7D1FC7010E94220346
:10074000882319F083E090E0CCCFBB24BA94DCCFAF
:100750008091DB03811102C02D98089560E00C9414
:100760000201882349F08091DB03811102C02D9A98
:10077000089561E00C9402010C94A8038F929F925B
:10078000AF92BF92CF92DF92EF92FF921F93CF93DF
:10079000DF93EC010E944E016B017C014B015C0177
:1007A00088E0880E911CA11CB11C10E0F89461E057
:1007B0008091C8020E9402018091CB029091CC02EC
:1007C0008230910538F0880F991F880F991F05977F
:1007D0000197F1F760E08091C8020E9402017894CD
:1007E000111103C081E00E94B1038091C902909170
:1007F000CA02C80ED91EE11CF11CF8940E944E01D9
:100800009B01281939092C173D0778F00E94A8038D
:100810007894DF91CF911F91FF90EF90DF90CF9070
:10082000BF90AF909F908F90089511E06C157D055B
:100830008E059F0518F3BACFCF92DF92EF92FF9209
:100840008AE190E09093CA028093C90285E090E02B
:100850009093CC028093CB028091C80290E0FC017F
:10086000E058FE4F249184599E4FFC0184918823C7
:1008700099F090E0880F991FFC01E859FF4FA5916E
:10088000B491FC01E25BFE4F859194918FB7F8948F
:10089000EC91E22BEC938FBF80E093E20E94BE03C9
:1008A0000E944E016B017C01F4E0CF1AD108E108EF
:1008B000F1080E944E016C197D098E099F09603C68
:1008C000784081059105A8F380E392E0FF90EF90D6
:1008D000DF90CF900C94BE03FF920F931F93CF93A2
:1008E000DF93CDB7DEB764970FB6F894DEBF0FBEC7
:1008F000CDBF162FF42E44E150E0BC01CE0101968D
:100900000E9405100889802F80714885598504FD53
:1009100002C04A855B85001F0027001F21E081116E
:1009200001C020E06F2D812F0E94A50264960FB6B2
:10093000F894DEBF0FBECDBFDF91CF911F910F9115
:10094000FF900895CF93DF93FC0101900020E9F719
:100950003197AF01481B590BBC018BE292E00E941A
:100960007301EC0142E050E066E271E08BE292E05C
:100970000E9473018C0F9D1FDF91CF9108951F92EC
:100980000F920FB60F9211242F933F938F939F9343
:10099000AF93BF9380911D0290911E02A0911F0200
:1009A000B091200230911C0223E0230F2D3758F51F
:1009B0000196A11DB11D20931C0280931D029093EE
:1009C0001E02A0931F02B0932002809121029091F9
:1009D0002202A0912302B09124020196A11DB11D13
:1009E0008093210290932202A0932302B0932402C9
:1009F000BF91AF919F918F913F912F910F900FBE1B
:100A00000F901F90189526E8230F0296A11DB11D87
:100A1000D2CF1F920F920FB60F9211242F933F93B4
:100A20004F935F936F937F938F939F93AF93BF93F6
:100A3000EF93FF938BE292E00E94F101FF91EF911F
:100A4000BF91AF919F918F917F916F915F914F91E6
:100A50003F912F910F900FBE0F901F9018951F92EE
:100A60000F920FB60F9211242F938F939F93EF93B2
:100A7000FF93E0913B02F0913C028081E0914102C2
:100A8000F091420282FD1BC09081809144028F5FF1
:100A90008F7320914502821741F0E0914402F0E00B
:100AA000E55DFD4F958F80934402FF91EF919F91FB
:100AB0008F912F910F900FBE0F901F9018958081EE
:100AC000F4CF1F920F920FB60F9211242F933F93E2
:100AD0004F935F936F937F938F939F93AF93BF9346
:100AE000CF93EF93FF93E091CF02F091D002C081BA
:100AF0008091D102C8238091D2029091D30220919B
:100B0000D2023091D3022F3F3F4F29F001969093AC
:100B1000D3028093D2022091CD02211115C0C111C0
:100B20004BC0813A910558F01092D6029093D902A9
:100B30008093D80281E08093D7028093CD021092F7
:100B4000D3021092D20238C0213099F4CC23A1F103
:100B5000E091D7022E0F2093D702F0E0E353FD4F30
:100B60008F3F910519F010F08FEF90E0858782E0BC
:100B7000E4CF223009F047C0E091D702813A9105D5
:100B800010F4E73CA0F1E83C18F081E08093D60235
:100B90008091D8029091D9029093CF038093CE0395
:100BA000E093CD0383E08093CD02E091D402F091F5
:100BB000D502309709F009958091DC03882329F04C
:100BC00081E0C11180E00E94B103FF91EF91CF91CC
:100BD000BF91AF919F918F917F916F915F914F9155
:100BE0003F912F910F900FBE0F901F901895C1113C
:100BF000E3CF91E09E0F9093D702F0E0E353FD4FD7
:100C0000858781E09ACF2330B9F6C111D5CF97CF30
:100C1000DF92EF92FF920F931F93CF93DF93EC013C
:100C2000D62E8A017901F0E090E080E030E0E0E04B
:100C3000DE01AE0FB11D2C91FF5F222339F0320F80
:100C40002E9F800D911D11241C92F0E03323B9F0EA
:100C5000DE1611F0F23098F0232F2695820F911DA9
:100C6000632F70E00E943810DE01A60FB11D3C9387
:100C7000D8013C9131110FC06C9390E080E0EF5FA0
:100C8000DE16B0F681E0DF91CF911F910F91FF90BA
:100C9000EF90DF900895D7013C91332369F380E012
:100CA000F2CFEBE2F2E01382128288EE93E0A0E052
:100CB000B0E084839583A683B78388E191E0918334
:100CC000808385EC90E09587848784EC90E097871B
:100CD000868780EC90E0918B808B81EC90E0938B09
:100CE000828B82EC90E0958B848B86EC90E0978BE6
:100CF000868B118E128E138E148E1092DB03EDEC08
:100D0000F2E0118281E0848389E290E09383828320
:100D100050981092C8020895CF93DF93CDB7DEB7F5
:100D2000E9970FB6F894DEBF0FBECDBF789484B5B7
:100D3000826084BD84B5816084BD85B5826085BDD7
:100D400085B5816085BD80916E00816080936E0065
:100D50001092810080918100826080938100809157
:100D60008100816080938100809180008160809308
:100D700080008091B10084608093B1008091B000C8
:100D800081608093B00080917A00846080937A00C3
:100D900080917A00826080937A0080917A008160ED
:100DA00080937A0080917A00806880937A00109214
:100DB000C100E0913B02F0913C0282E08083E0912F
:100DC0003702F09138021082E0913902F0913A0234
:100DD0009FEC908310924302E0913F02F091400219
:100DE00096E09083E0913D02F0913E029081906107
:100DF0009083E0913D02F0913E0290819860908353
:100E0000E0913D02F0913E02908190689083E091E4
:100E10003D02F0913E0290819F7D908397E09093F8
:100E2000CE0290E89093D10229E230E03093D002D4
:100E30002093CF02579891E09093DC031092DB034C
:100E40008093B0008093B10084E68093B3008093D8
:100E5000B4001092B2008091CD02833011F4109250
:100E6000CD0284E0809370009E012F5F3F4F5901B7
:100E700090E2692E712C8091CD02833009F01CC262
:100E80008091D602882309F465C080E48093CC0366
:100E90001092A3031092A2031092A7031092A6032C
:100EA0001092A5031092A4031092AA031092AB0310
:100EB0001092AC031092AD031092CB031092CA03B0
:100EC0008091CC0386FDF2C11091CD03812F8F7BE1
:100ED000843009F0BFC08091DB0260E073E290E0F3
:100EE0000E94A102882309F442C18091DC0290E0B3
:100EF00044E150E0143009F048C060EC78E00E9412
:100F00008002882309F433C18091DD0260E372E03E
:100F100090E00E94A102882309F429C181E0809316
:100F2000CC038091D2039091D3039093A503809337
:100F3000A4038091D4039091D5039093A703809349
:100F4000A6038091D0039091D1039093A303809343
:100F5000A2037DC11092CC038091A2039091A303C0
:100F60009093D1038093D0038091A6039091A7031F
:100F70009093D5038093D4038091A4039091A5030B
:100F80009093D3038093D20383CF60E871E10E94F2
:100F90008002882309F4EBC043E060E28AE391E039
:100FA0000E946C042091AA039091AB036091AC0362
:100FB0008091AD03462F50E05093A7034093A603C2
:100FC000422F592F4E3E37E8530709F523E030E012
:100FD0003093A3032093A20390E09093A503809302
:100FE000A4037092CB036092CA038AE795E00E9443
:100FF000F5008091CC0380FF2AC129E030E03093D6
:10100000A3032093A20380628093CC0320C1909518
:10101000291310C030E03093A5032093A403982F28
:10102000909569130CC088E090E09093A30380939F
:10103000A203D7CF5093A5034093A403F0CF2AE097
:1010400030E03093A3032093A2036093A603809320
:10105000A703C7CF143609F08AC086E291E00E9448
:101060000303882309F483C043E060E186E291E052
:101070000E946C04D090AA030D2D1091AB03BBE02D
:10108000EB2EF12C023040E21407F9F0AEE0EA2E2C
:10109000F12C0A3A8AE51807C1F0FDE0EF2EF12C99
:1010A000043592E3190789F0EFE0EE2EF12C0330BE
:1010B000A1E01A0751F080E1E82EF12C0332BBECDD
:1010C0001B0719F07CE0E72EF12CD1268D2D82959F
:1010D0008F70D82643E260E286E291E00E946C04C1
:1010E0008091AA039091AB03A091AC03B091AD03A2
:1010F0009C0164E0369527956A95E1F73093A50346
:101100002093A4032A2F30E03093A7032093A60353
:10111000282F2A2729273D2D3F70482F4F7034173D
:1011200019F034E03093CC03ECE0EE16F10449F40E
:101130003091CC0330613093CC031093A90300931A
:10114000A8032B1729F08091CC0384608093CC03F3
:1011500080E390E09093CB038093CA03F092A303C3
:10116000E092A2038AE397E00E94F50070C08091AC
:10117000CD03803209F0D5C041E06FE082E191E01B
:101180000E946C048091F90264E071E090E00E949A
:10119000A102882309F4C5C08091AA039091AB03F2
:1011A000A091AC03B091AD039C012F713327309314
:1011B000A5032093A40355E0B695A7959795879529
:1011C0005A95D1F7392F3370AC0155275093A703A7
:1011D0004093A6034091CE035091CF03453654402F
:1011E00008F09CC02091CC0322602093CC03209176
:1011F000DA032F5F2093DA0320FF19C0213019F0A2
:1012000021E02093CC033091D4034091D503282FC3
:101210002095231729F02091CC0324602093CC0340
:101220003093A6034093A703392F3095337087E19D
:1012300090E0311102C084E090E09093A30380938A
:10124000A2038FE090E09093CB038093CA03809138
:10125000AA039091AB03A091AC03B091AD038115AB
:10126000EFEF9E07E0E4AE07EFEBBE0709F4ACC674
:101270000CF047C681152FEF920727E4A20728EB51
:10128000B20709F49BC60CF00CC681154FEF94070A
:101290004AE5A40745EAB40709F4B1C60CF0EFC566
:1012A00081159F4FAE45B14A09F4A3C68091CD0286
:1012B000833011F41092CD020E944E011B012C01CB
:1012C00088E5C82E82E0D82EE12CF12C0E944E0138
:1012D0006219730984099509683E73408105910577
:1012E000A8F331E0C31AD108E108F10848EE240E52
:1012F00043E0341E411C511CC114D104E104F1042B
:1013000029F780E090E0892B09F4B5CD0E94DD013A
:10131000882309F4ADCD0E940000AACD1092DA0313
:1013200086CF82E790E00E940303882309F446C039
:101330008091CD038A3129F08A3219F0803209F088
:101340003DC090E0BC016150710977FDBC0175950D
:10135000679543E082E790E00E946C048091AA03C5
:101360009091AB03A091AC03B091AD039C012F779A
:1013700033273093A7032093A60347E0B695A7959C
:10138000979587954A95D1F79093A5038093A403E9
:101390002091CD0330E0C901019797FDC9019595D2
:1013A00087959093CB038093CA0388E190E0909354
:1013B000A3038093A20380EE91E0D6CE81E08093D8
:1013C0002A0229E733E03093280220932702109263
:1013D00029020E944003813009F063C0C12CD12C46
:1013E000760110E09091CD0380912A028917E0F4F4
:1013F0000E944003082F0E94400301110BC081305E
:1014000009F04FC0CC0CDD1CEE1CFF1C6894C0F82A
:101410001F5FE8CF013009F044C0811142C0CC0CFD
:10142000DD1CEE1CFF1CF4CF812F90E09093CB03CA
:101430008093CA03C092AA03D092AB03E092AC039C
:10144000F092AD038C2D8F7390E09093A70380935F
:10145000A6039601B6E036952795BA95E1F72F7168
:1014600033273093A5032093A403960122273071DC
:10147000232B31F4805C9F4F9093A7038093A603A6
:1014800080E88093CC03D3FE03C088E88093CC032C
:1014900081E190E09093A3038093A2038FEC99E005
:1014A00063CE8091DB0268E67AE090E00E94A102C0
:1014B000882309F448C08091DC0244E150E068E7E9
:1014C00073E090E00E9480028823E9F183E080933A
:1014D0002A028CEB91E090932802809327021092CD
:1014E00029020E944003813071F50E94400381115E
:1014F0002AC0C12CD12C760110E09091CD038091AF
:101500002A02891708F076C00E944003982E1330F3
:10151000B1F00E944003082F133021F40E944003D1
:10152000081311C031E093125BC001110CC0CC0C48
:10153000DD1CEE1CFF1C6894C0F81F5FDECF0E940C
:101540004003981631F3F090CD034CE3F41619F0F4
:1015500084E0F81215C00091DB0210E068E273E24B
:10156000C8010E94A102811192C06CE175E2C8011C
:101570000E94A10268EB7BE007E010E081118BC0C4
:10158000B2E2FB1609F4F3C0E4E2FE1222C18AE9DA
:1015900090E00E940303882309F41BC143E060E14B
:1015A0008AE990E00E946C048091AA039091AB03B9
:1015B000A091AC03B091AD03492F5A2F6B2F772721
:1015C0005093A7034093A60399279093A503809374
:1015D000A40380E190E09093CB038093CA03F6C00C
:1015E0009110B1CF013009F0AECFCC0CDD1CEE1C58
:1015F000FF1CA3CF812F90E09093CB038093CA036D
:10160000C092AA03D092AB03E092AC03F092AD0378
:101610002C2D30E08D2D90E0133200F540E8409302
:10162000CC033093A7032093A6039093A503809344
:10163000A403E0FE03C088E88093CC03153128F0B2
:101640008091CC0380618093CC0382E190E0909301
:10165000A3038093A20383E79AE086CD40E94093F9
:10166000CC033093A7032093A6039093A503809304
:10167000A403C7019F739093A9038093A803F7FE67
:1016800003C088E98093CC0383E190E0E0CF68E673
:1016900070E106E010E08091DC0290E0A4E044E11B
:1016A00050E0FA1213C060ED77E00E9480028823B8
:1016B00009F48FC08091DD0264EF71E090E00E9438
:1016C000A102882309F485C081E829CC0E94800208
:1016D000882309F455CF43E06CE186E890E00E944E
:1016E0006C0480E88093CC034091AA035091AB0333
:1016F0006091AC037091AD03DB01CA0124E0B695A3
:10170000A795979587952A95D1F79C019093A70364
:101710008093A603DB01CA01E4E1B695A7959795EE
:101720008795EA95D1F79093A5038093A40384E06D
:1017300090E0E0E0F22FFF70EF0FF4E03695279590
:10174000FA95E1F70197B1F74E274F7055276627B5
:101750007727452B462B472B19F084E88093CC0341
:101760001093A3030093A2038CE190E06CCD8091D1
:10177000CE039091CF038C3E9C4508F068CD8091BC
:10178000DB026EE072E090E00E94A102882309F47F
:101790005ECD8091FB026EE072E090E00E94A102BB
:1017A000882309F454CD81E08093CC038091D20347
:1017B0009091D3039093A5038093A4038091D403C5
:1017C0009091D5039093A7038093A60385E090E0C2
:1017D000BCCB8091CD03982F9F7D943419F0863037
:1017E00009F07BC08EEA90E00E940303882309F48D
:1017F00074C08091CD038630B1F481E28093CC0334
:101800008091D2039091D3039093A5038093A40376
:101810008091D4039091D5039093A7038093A6035E
:1018200085E190E092CB43E060E28EEA90E00E9496
:101830006C049091AA038091AB031091AC032091AA
:10184000AD039093A4038093A5033091CD03022FA1
:101850000095343639F543E460E18EEA90E00E9469
:101860006C048091AA039091AB03101731F090950E
:10187000981719F094E09093CC03982F812F9093B0
:10188000A7038093A60380E390E09093CB0380931B
:10189000CA0386E190E09093A3038093A2038EEBAA
:1018A0009AE062CC101306C0412F50E05093A7037A
:1018B0004093A60389130CC090E09093A5038093F6
:1018C000A4037092CB036092CA0384E190E0E3CF5B
:1018D0001093A6032093A703F4CF8091CD03843205
:1018E00069F582EC90E00E940303882339F143E01C
:1018F00060E182EC90E00E946C041091AA03809158
:10190000AB038095181719F084E08093CC038DE623
:1019100092E00E94F500812F90E09093A7038093BE
:10192000A6031092A5031092A40380E190E0909387
:10193000CB038093CA038EE190E007CB8091CD0367
:101940008434B1F486ED90E00E940303882381F093
:1019500043E060E286ED90E00E946C0480E88093B2
:10196000CC037092CB036092CA038DE190E0EDCA84
:101970008091DB028E3E08F06AC08091DC0244E177
:1019800050E062E074E090E00E948002882309F455
:101990005EC08091CD03843209F059C000910F01DF
:1019A000802F8071409107015091080104FD04C00F
:1019B0004091090150910A01001F0027001F21E0FA
:1019C000811101C020E063E080E10E94A50280E86F
:1019D0008093CC039091AA038091AB03292F382FD9
:1019E000482F42954F708F7054E0369527955A9541
:1019F000E1F72F70392F3F709FE0942798279227A7
:101A0000391719F094E89093CC036091CE0370914C
:101A1000CF03683F714128F49091CC03926090937A
:101A2000CC034093A4031092A50340E1849FC0011E
:101A30001124822B9093A7038093A60380E190E06A
:101A40009093CB038093CA038BE190E07ECA8AEE29
:101A500090E00E940303882371F18091CD038432CA
:101A600051F543E060E18AEE90E00E946C048091C1
:101A7000FD0268E072E090E00E94A1028823D9F0A4
:101A80008091AA039091AB0398279F3FA1F490E027
:101A90009093A7038093A60380E190E09093CB03FB
:101AA0008093CA038AE190E09093A3038093A203FA
:101AB00088ED94E059CB8091CD03803709F04FC079
:101AC00041E068E08EEF90E00E946C048091AA03F0
:101AD0009091AB03A091AC03B091AD03892B8A2BFD
:101AE0008B2BE9F541E16FE18EEF90E00E946C04F1
:101AF000C090AA03D090AB03E090AC03F090AD038C
:101B00004FE461E18EEF90E00E946C049091AB0392
:101B10008091AC038927982789279093A703809306
:101B2000A603C092AA03D092AB03E092AC03F0925A
:101B3000AD03D092A503C092A403F092A903E09252
:101B4000A8038CE190E09093A3038093A20388E321
:101B500090E09093CB038093CA0380E855CA8091AC
:101B6000CD03823108F438C192E3D5011D929A95D4
:101B7000E9F743E060E08250990B242F30E028170A
:101B8000390794F423533D4FF9012585223308F09A
:101B900023C1F501E20FF11D30813F5F30836217F1
:101BA00008F4622F4E5FE9CF1EAA1DAA9E012B5C8E
:101BB0003F4FAE014A5C5F4FC5010E940806882373
:101BC00009F40AC182E3D5011D928A95E9F72091B3
:101BD000CD032250330B44E060E0842F90E0821765
:101BE000930794F483539D4FFC018585823308F05D
:101BF000F3C0F501E80FF11D90819F5F9083681796
:101C000008F4682F4E5FE9CF1CAA1BAA9E012D5C29
:101C10003F4FAE014C5C5F4FC5010E940806882310
:101C200009F4DAC08091CD0386951FEF180FEBA859
:101C3000EE2011F01EEF180F212F30E03093CB0370
:101C40002093CA03C901019797FD4F969C0145E077
:101C5000359527954A95E1F738AF2FAB3FA939AFB6
:101C6000CDA8C11003C0EE2009F4B6C04CA882E391
:101C7000489E200111248EA8889E40011124C89EF0
:101C800060011124E89E7001112433E0232E312CD1
:101C9000812F113208F080E29BA9992309F47CC0BE
:101CA000A2E0B0E0B093A303A093A20300E020E081
:101CB000A701622D0E94A5028091AA039091AB0317
:101CC000A091AC03B091AD0324E0329EF001112449
:101CD000E654FC4F80839183A283B38330E4230EC8
:101CE0001052339449AD431598F62091CE033091AC
:101CF000CF03203D3740F0F4EFA9F8ADEE0FFF1F02
:101D0000EE0FFF1FE654FC4F0081118122813381C9
:101D10004091D6035091D7036091D8037091D903B5
:101D2000041715072607370729F42091CC032160F3
:101D30002093CC038093D6039093D703A093D8032A
:101D4000B093D9032091DB0292E3299F90011124E3
:101D50003093AF032093AE038091DC02899FC001D2
:101D600011249093B1038093B0039092B7038092B3
:101D7000B6035092B9034092B803C114D10419F1CB
:101D8000E114F10499F4D092B303C092B2035092DB
:101D9000B5034092B4035BCAE1E0F0E0F093A30323
:101DA000E093A20300E021E0A60183CFF092B50307
:101DB000E092B4039092B3038092B203D092B7033F
:101DC000C092B60344CA9092B3038092B203F092D9
:101DD000B503E092B4033BCAE091CD03E63008F4CA
:101DE00036CA11E025EC3DE94CE151E8F0E00AE0AB
:101DF000612F70E0CB0102968E179F077CF583530D
:101E00009D4FDC011D968C9163537D4FDB011D9628
:101E10006C91809F7001112498E0699FD00111247A
:101E2000EA16FB06C8F0609FB0011124A8E08A9F63
:101E3000C0011124FF24F3946817790710F492E08D
:101E4000F92E63E971E080E091E00E940E109B01A1
:101E5000AC012F251F5FCCCFF12CF3CF2093AA0329
:101E60003093AB034093AC035093AD037092CB031C
:101E70006092CA031092A3031092A203E8C98115CD
:101E80002FEF920722E5A2072DEAB20709F4BAC0A4
:101E900081159F4FAA44B54B09F008CA82E192E030
:101EA0001BC081154FEF940744E4A4074BEBB40724
:101EB00009F487C0A4F48115FFEF9F07F6E4AF078C
:101EC000F9EBBF0709F477C081159F4FA544BA4BC2
:101ED00009F0ECC989E291E00E94A204E7C98115EA
:101EE0003FEF930733E4A3073CEBB30709F46FC05C
:101EF00081159F4FA244BD4B09F0D8C980E092E004
:101F0000EBCF8115EFEF9E07E5E1AE07EAEEBE07E6
:101F100009F460C02CF581152FEF920729E1A20783
:101F200026EEB20709F45CC04CF481159F4FAC411A
:101F3000B34E09F0BBC98EEE91E0CECF8115EFEF25
:101F40009E07E8E1AE07E7EEBE0709F44FC0811532
:101F50009F4FA641B94E09F0A9C984EA91E0BCCFD0
:101F600081152FEF920729E0A20726EFB207A9F10A
:101F70008CF481154FEF94074DE0A40742EFB407AE
:101F800091F181159F4FAC40B34F09F08FC98AEC96
:101F900091E0A2CF8115FFEF9F07F8E0AF07F7EFC1
:101FA000BF0751F181159F4FA740B84F09F07EC977
:101FB0008BE791E091CF87E391E08ECF87E491E0CA
:101FC0008BCF84E591E088CF81E691E085CF8EE6E6
:101FD00091E082CF86E891E07FCF86E991E07CCFE7
:101FE0008DEA91E079CF8AEB91E076CF83ED91E0B5
:101FF00073CF8CED91E070CF85EE91E06DCF87EFE0
:1020000091E06ACF89E092E067CFFB01DC0102C07A
:1020100005900D9241505040D8F70895DB018F9301
:102020009F930E941E10BF91AF91A29F800D911DA2
:10203000A39F900DB29F900D112408950E94291026
:10204000A59F900DB49F900DA49F800D911D11240C
:102050000895A29FB001B39FC001A39F700D811D81
:102060001124911DB29F700D811D1124911D0895A1
:10207000AA1BBB1B51E107C0AA1FBB1FA617B707AE
:1020800010F0A61BB70B881F991F5A95A9F78095CA
:102090009095BC01CD010895EE0FFF1F0590F491BE
:0820A000E02D0994F894FFCF34
:1020A8001B00269E0002049E0029029E00070100D4
:1020B8006E0000000000000013027301A00160021E
:1020C800D101AF01C3010D0A004952506F77657203
:1020D800427574746F6E004952436170747572650D
:1020E800427574746F6E0049524D7574654275740B
:1020F800746F6E004952506C6179427574746F6EDA
:1021080000495250726576427574746F6E00495278
:102118004E657874427574746F6E00495245514229
:102128007574746F6E004952566F6C446F776E42C7
:102138007574746F6E004952566F6C5570427574A1
:10214800746F6E00427574746F6E5F300049524749
:10215800616D65427574746F6E00495255534253F0
:1021680063616E427574746F6E00427574746F6E3D
:102178005F3100427574746F6E5F3200427574741B
:102188006F6E5F3300427574746F6E5F3400427512
:1021980074746F6E5F3500427574746F6E5F3600CD
:1021A800427574746F6E5F3700427574746F6E5F3A
:0C21B8003800427574746F6E5F390000CF
:00000001FF
